:100000000EC01DC01CC01BC01AC019C018C017C02C
:1000100016C015C024C013C012C011C010C01124D6
:100020001FBECFE5D1E0DEBFCDBF10E0A0E6B0E05F
:1000300001C01D92A236B107E1F7F5D0C9C1E0CFEA
:1000400012BE8EE489BD109261001092600082E0C1
:100050008ABD85E083BF89B7806189BF08951F92FB
:100060000F920FB60F9211248F93809161008F5FD2
:1000700080936100809161008A3038F010926100B5
:10008000809160008F5F809360008F910F900FBE12
:100090000F901F901895C29A8AE1982F9A95F1F7C0
:1000A000B89A982F9A95F1F7C298982F9A95F1F7E8
:1000B000B8988A95F1F70895C2988AE1982F9A9591
:1000C000F1F7B89A982F9A95F1F7C29A982F9A95C6
:1000D000F1F7B8988A95F1F70895682F90E820E035
:1000E00030E04AE113C0B898842F8A95F1F7C29A9C
:1000F0005AE1842F8A95F1F7C298842F8A95F1F7F7
:1001000096952F5F3F4F2830310541F0892F862388
:1001100051F7B89A842F8A95F1F7E9CFB898852FCF
:100120008A95F1F7C29A852F8A95F1F786B3C2981E
:10013000952F9A95F1F780958170089520E030E031
:100140004AE1330FC29A942F9A95F1F7B099316032
:10015000C298942F9A95F1F72F5F283091F7882352
:1001600021F0B89A8AE18A95F1F7C29A8AE1982F2C
:100170009A95F1F7C298982F9A95F1F7B8988A95C1
:10018000F1F7832F0895FF920F931F93182F062FD7
:10019000F42E81DF812F880FA0DF802F9EDF8F2D2F
:1001A0009CDF182F89DF812F1F910F91FF900895F9
:1001B000EF92FF920F931F93182F062F6CDF812F62
:1001C000880F8BDF802F89DF66DF110F812F816021
:1001D00084DF81E0B3DFE82EFF2480E0AFDF182F5B
:1001E0006BDF312F20E02E293F29C9011F910F918C
:1001F000FF90EF90089514BEA8952CE088E190E060
:100200000FB6F894A89581BD0FBE21BDA89582E0D8
:1002100087B987E886B980E184BB86E088BB87B36D
:100220008E6087BB0895AF92BF92DF92EF92FF92EC
:100230000F931F93CF93DF93DEDF02DF789489E380
:1002400060E840E050E09FDF89E361E84FEF50E075
:100250009ADF89E362E84FEF50E095DF89E363E8D6
:100260004FEF50E090DF89E368E840E050E08BDF3B
:1002700089E369E840E050E086DF89E36AE840E02E
:1002800050E081DF89E36BE843E050E07CDF89E305
:100290006CE840E150E077DF89E36DE840E050E052
:1002A00072DF89E36EE848E050E06DDF89E36FE8D4
:1002B00040E250E068DF89E360E847E250E063DF56
:1002C000DD24EE24FF2400E010E03DE9A32E33E01E
:1002D000B32EA89580916000882351F4DD2009F4A5
:1002E0004EC0C39AC198A895809160008823B1F34D
:1002F0001092600089E36EE848E050E044DF369AEF
:100300003699FECF84B195B1801B910B97FD4FC0FC
:100310009595879595958795080F191FC501801BA1
:10032000910B97FD42C0EC01D595C795D595C79522
:100330001C161D06BCF5612F772767FD7A95A8016D
:10034000507080E220DF89E368EB32DFDD20D9F0F6
:100350004D2D50E020E030E063E08030960710F44F
:1003600021E030E024233523232B19F10894E11CEC
:10037000F11CCE15DF0508F0B4CFEE24FF24C3989E
:10038000C19ADD24A6CF80509340B8F30894E11CB5
:10039000F11C62E0E616F10490F3DD24D394EE2420
:1003A000FF249FCFC1E0D0E0C6CF0396BCCF039619
:1003B000AFCF20E030E08050934010F021E030E0FB
:1003C00024233523232B09F489CFEE24FF2489CF5E
:0403D000F894FFCFCF
:00000001FF
